{
  "_format": "hh-sol-artifact-1",
  "contractName": "PinnieHatStore",
  "sourceName": "contracts/PinnieHatStore.sol",
  "abi": [
    {
      "inputs": [],
      "stateMutability": "nonpayable",
      "type": "constructor"
    },
    {
      "inputs": [],
      "name": "buyHat",
      "outputs": [],
      "stateMutability": "payable",
      "type": "function"
    }
  ],
  "bytecode": "0x608060405234801561001057600080fd5b50610151806100206000396000f3fe60806040526004361061001e5760003560e01c806346e05cc814610023575b600080fd5b61002b61002d565b005b6608e1bc9bf040003414610076576040517f08c379a000000000000000000000000000000000000000000000000000000000815260040161006d906100fb565b60405180910390fd5b565b600082825260208201905092915050565b7f496e636f7272656374207061796d656e7420616d6f756e7420666f72204e465460008201527f20686f6c64657200000000000000000000000000000000000000000000000000602082015250565b60006100e5602783610078565b91506100f082610089565b604082019050919050565b60006020820190508181036000830152610114816100d8565b905091905056fea26469706673582212202cfd39acf8ccc11480460a3cdc6fa7d963d6e5492817526f9cb64e6cd48a1eb764736f6c63430008140033",
  "linkReferences": {},
  "deployedLinkReferences": {}
}