{
  "_format": "hh-sol-artifact-1",
  "contractName": "ProxyPay",
  "sourceName": "contracts/ProxyPay.sol",
  "abi": [
    {
      "anonymous": false,
      "inputs": [
        {
          "indexed": true,
          "internalType": "address",
          "name": "userAddress",
          "type": "address"
        },
        {
          "indexed": false,
          "internalType": "uint256",
          "name": "amount",
          "type": "uint256"
        }
      ],
      "name": "PaymentReceived",
      "type": "event"
    },
    {
      "anonymous": false,
      "inputs": [
        {
          "indexed": true,
          "internalType": "address",
          "name": "userAddress",
          "type": "address"
        },
        {
          "indexed": false,
          "internalType": "string",
          "name": "nameFid",
          "type": "string"
        },
        {
          "indexed": false,
          "internalType": "string",
          "name": "img",
          "type": "string"
        },
        {
          "indexed": false,
          "internalType": "string",
          "name": "buttonTitle",
          "type": "string"
        },
        {
          "indexed": false,
          "internalType": "uint256",
          "name": "fee",
          "type": "uint256"
        }
      ],
      "name": "UserRegistered",
      "type": "event"
    },
    {
      "anonymous": false,
      "inputs": [
        {
          "indexed": true,
          "internalType": "address",
          "name": "userAddress",
          "type": "address"
        },
        {
          "indexed": false,
          "internalType": "uint256",
          "name": "amount",
          "type": "uint256"
        }
      ],
      "name": "Withdrawal",
      "type": "event"
    },
    {
      "inputs": [
        {
          "internalType": "uint256",
          "name": "",
          "type": "uint256"
        }
      ],
      "name": "allUsers",
      "outputs": [
        {
          "internalType": "address",
          "name": "",
          "type": "address"
        }
      ],
      "stateMutability": "view",
      "type": "function"
    },
    {
      "inputs": [
        {
          "internalType": "address",
          "name": "",
          "type": "address"
        }
      ],
      "name": "balances",
      "outputs": [
        {
          "internalType": "uint256",
          "name": "",
          "type": "uint256"
        }
      ],
      "stateMutability": "view",
      "type": "function"
    },
    {
      "inputs": [],
      "name": "getBalance",
      "outputs": [
        {
          "internalType": "uint256",
          "name": "",
          "type": "uint256"
        }
      ],
      "stateMutability": "view",
      "type": "function"
    },
    {
      "inputs": [
        {
          "internalType": "address",
          "name": "_userAddress",
          "type": "address"
        }
      ],
      "name": "getUserData",
      "outputs": [
        {
          "internalType": "string",
          "name": "",
          "type": "string"
        },
        {
          "internalType": "string",
          "name": "",
          "type": "string"
        },
        {
          "internalType": "string",
          "name": "",
          "type": "string"
        },
        {
          "internalType": "uint256",
          "name": "",
          "type": "uint256"
        }
      ],
      "stateMutability": "view",
      "type": "function"
    },
    {
      "inputs": [
        {
          "internalType": "address",
          "name": "_userAddress",
          "type": "address"
        }
      ],
      "name": "payFee",
      "outputs": [],
      "stateMutability": "payable",
      "type": "function"
    },
    {
      "inputs": [
        {
          "internalType": "string",
          "name": "_nameFid",
          "type": "string"
        },
        {
          "internalType": "string",
          "name": "_img",
          "type": "string"
        },
        {
          "internalType": "string",
          "name": "_buttonTitle",
          "type": "string"
        },
        {
          "internalType": "uint256",
          "name": "_fee",
          "type": "uint256"
        }
      ],
      "name": "registerUser",
      "outputs": [],
      "stateMutability": "nonpayable",
      "type": "function"
    },
    {
      "inputs": [
        {
          "internalType": "address",
          "name": "",
          "type": "address"
        }
      ],
      "name": "userExists",
      "outputs": [
        {
          "internalType": "bool",
          "name": "",
          "type": "bool"
        }
      ],
      "stateMutability": "view",
      "type": "function"
    },
    {
      "inputs": [
        {
          "internalType": "address",
          "name": "",
          "type": "address"
        }
      ],
      "name": "users",
      "outputs": [
        {
          "internalType": "string",
          "name": "nameFid",
          "type": "string"
        },
        {
          "internalType": "string",
          "name": "img",
          "type": "string"
        },
        {
          "internalType": "string",
          "name": "buttonTitle",
          "type": "string"
        },
        {
          "internalType": "uint256",
          "name": "fee",
          "type": "uint256"
        }
      ],
      "stateMutability": "view",
      "type": "function"
    },
    {
      "inputs": [],
      "name": "withdraw",
      "outputs": [],
      "stateMutability": "nonpayable",
      "type": "function"
    }
  ],
  "bytecode": "0x608060405234801561001057600080fd5b5061177c806100206000396000f3fe6080604052600436106100865760003560e01c80633ccfd60b116100595780633ccfd60b146101595780636f5a955b14610170578063a2bdedf41461018c578063a87430ba146101c9578063ffc9896b1461020957610086565b80630e666e491461008b57806311b2806b146100c857806312065fe0146100f157806327e235e31461011c575b600080fd5b34801561009757600080fd5b506100b260048036038101906100ad9190610d63565b610249565b6040516100bf9190610dab565b60405180910390f35b3480156100d457600080fd5b506100ef60048036038101906100ea9190610f42565b610269565b005b3480156100fd57600080fd5b50610106610517565b604051610113919061100c565b60405180910390f35b34801561012857600080fd5b50610143600480360381019061013e9190610d63565b61055e565b604051610150919061100c565b60405180910390f35b34801561016557600080fd5b5061016e610576565b005b61018a60048036038101906101859190610d63565b610777565b005b34801561019857600080fd5b506101b360048036038101906101ae9190611027565b6108dd565b6040516101c09190611063565b60405180910390f35b3480156101d557600080fd5b506101f060048036038101906101eb9190610d63565b61091c565b60405161020094939291906110fd565b60405180910390f35b34801561021557600080fd5b50610230600480360381019061022b9190610d63565b610ae4565b60405161024094939291906110fd565b60405180910390f35b60016020528060005260406000206000915054906101000a900460ff1681565b600160003373ffffffffffffffffffffffffffffffffffffffff1673ffffffffffffffffffffffffffffffffffffffff16815260200190815260200160002060009054906101000a900460ff16156102f6576040517f08c379a00000000000000000000000000000000000000000000000000000000081526004016102ed906111a3565b60405180910390fd5b60008060003373ffffffffffffffffffffffffffffffffffffffff1673ffffffffffffffffffffffffffffffffffffffff16815260200190815260200160002090508481600001908161034991906113cf565b508381600101908161035b91906113cf565b508281600201908161036d91906113cf565b5081816003018190555060018060003373ffffffffffffffffffffffffffffffffffffffff1673ffffffffffffffffffffffffffffffffffffffff16815260200190815260200160002060006101000a81548160ff021916908315150217905550806000803373ffffffffffffffffffffffffffffffffffffffff1673ffffffffffffffffffffffffffffffffffffffff1681526020019081526020016000206000820181600001908161042191906114b7565b506001820181600101908161043691906114b7565b506002820181600201908161044b91906114b7565b50600382015481600301559050506003339080600181540180825580915050600190039060005260206000200160009091909190916101000a81548173ffffffffffffffffffffffffffffffffffffffff021916908373ffffffffffffffffffffffffffffffffffffffff1602179055503373ffffffffffffffffffffffffffffffffffffffff167feb909d03a1826538126783a14a06a590245c9e5085337d88971cca5ada6b80998686868660405161050894939291906110fd565b60405180910390a25050505050565b6000600260003373ffffffffffffffffffffffffffffffffffffffff1673ffffffffffffffffffffffffffffffffffffffff16815260200190815260200160002054905090565b60026020528060005260406000206000915090505481565b600160003373ffffffffffffffffffffffffffffffffffffffff1673ffffffffffffffffffffffffffffffffffffffff16815260200190815260200160002060009054906101000a900460ff16610602576040517f08c379a00000000000000000000000000000000000000000000000000000000081526004016105f9906115eb565b60405180910390fd5b6000600260003373ffffffffffffffffffffffffffffffffffffffff1673ffffffffffffffffffffffffffffffffffffffff16815260200190815260200160002054905060008111610689576040517f08c379a000000000000000000000000000000000000000000000000000000000815260040161068090611657565b60405180910390fd5b80600260003373ffffffffffffffffffffffffffffffffffffffff1673ffffffffffffffffffffffffffffffffffffffff16815260200190815260200160002060008282546106d891906116a6565b925050819055503373ffffffffffffffffffffffffffffffffffffffff166108fc829081150290604051600060405180830381858888f19350505050158015610725573d6000803e3d6000fd5b503373ffffffffffffffffffffffffffffffffffffffff167f7fcf532c15f0a6db0bd6d0e038bea71d30d808c7d98cb3bf7268a95bf5081b658260405161076c919061100c565b60405180910390a250565b600160008273ffffffffffffffffffffffffffffffffffffffff1673ffffffffffffffffffffffffffffffffffffffff16815260200190815260200160002060009054906101000a900460ff16610803576040517f08c379a00000000000000000000000000000000000000000000000000000000081526004016107fa906115eb565b60405180910390fd5b60008060008373ffffffffffffffffffffffffffffffffffffffff1673ffffffffffffffffffffffffffffffffffffffff16815260200190815260200160002090508060030154341461088b576040517f08c379a000000000000000000000000000000000000000000000000000000000815260040161088290611726565b60405180910390fd5b8173ffffffffffffffffffffffffffffffffffffffff167f6ef95f06320e7a25a04a175ca677b7052bdd97131872c2192525a629f51be770346040516108d1919061100c565b60405180910390a25050565b600381815481106108ed57600080fd5b906000526020600020016000915054906101000a900473ffffffffffffffffffffffffffffffffffffffff1681565b600060205280600052604060002060009150905080600001805461093f906111f2565b80601f016020809104026020016040519081016040528092919081815260200182805461096b906111f2565b80156109b85780601f1061098d576101008083540402835291602001916109b8565b820191906000526020600020905b81548152906001019060200180831161099b57829003601f168201915b5050505050908060010180546109cd906111f2565b80601f01602080910402602001604051908101604052809291908181526020018280546109f9906111f2565b8015610a465780601f10610a1b57610100808354040283529160200191610a46565b820191906000526020600020905b815481529060010190602001808311610a2957829003601f168201915b505050505090806002018054610a5b906111f2565b80601f0160208091040260200160405190810160405280929190818152602001828054610a87906111f2565b8015610ad45780601f10610aa957610100808354040283529160200191610ad4565b820191906000526020600020905b815481529060010190602001808311610ab757829003601f168201915b5050505050908060030154905084565b60608060606000806000808773ffffffffffffffffffffffffffffffffffffffff1673ffffffffffffffffffffffffffffffffffffffff16815260200190815260200160002090508060000181600101826002018360030154838054610b49906111f2565b80601f0160208091040260200160405190810160405280929190818152602001828054610b75906111f2565b8015610bc25780601f10610b9757610100808354040283529160200191610bc2565b820191906000526020600020905b815481529060010190602001808311610ba557829003601f168201915b50505050509350828054610bd5906111f2565b80601f0160208091040260200160405190810160405280929190818152602001828054610c01906111f2565b8015610c4e5780601f10610c2357610100808354040283529160200191610c4e565b820191906000526020600020905b815481529060010190602001808311610c3157829003601f168201915b50505050509250818054610c61906111f2565b80601f0160208091040260200160405190810160405280929190818152602001828054610c8d906111f2565b8015610cda5780601f10610caf57610100808354040283529160200191610cda565b820191906000526020600020905b815481529060010190602001808311610cbd57829003601f168201915b505050505091509450945094509450509193509193565b6000604051905090565b600080fd5b600080fd5b600073ffffffffffffffffffffffffffffffffffffffff82169050919050565b6000610d3082610d05565b9050919050565b610d4081610d25565b8114610d4b57600080fd5b50565b600081359050610d5d81610d37565b92915050565b600060208284031215610d7957610d78610cfb565b5b6000610d8784828501610d4e565b91505092915050565b60008115159050919050565b610da581610d90565b82525050565b6000602082019050610dc06000830184610d9c565b92915050565b600080fd5b600080fd5b6000601f19601f8301169050919050565b7f4e487b7100000000000000000000000000000000000000000000000000000000600052604160045260246000fd5b610e1982610dd0565b810181811067ffffffffffffffff82111715610e3857610e37610de1565b5b80604052505050565b6000610e4b610cf1565b9050610e578282610e10565b919050565b600067ffffffffffffffff821115610e7757610e76610de1565b5b610e8082610dd0565b9050602081019050919050565b82818337600083830152505050565b6000610eaf610eaa84610e5c565b610e41565b905082815260208101848484011115610ecb57610eca610dcb565b5b610ed6848285610e8d565b509392505050565b600082601f830112610ef357610ef2610dc6565b5b8135610f03848260208601610e9c565b91505092915050565b6000819050919050565b610f1f81610f0c565b8114610f2a57600080fd5b50565b600081359050610f3c81610f16565b92915050565b60008060008060808587031215610f5c57610f5b610cfb565b5b600085013567ffffffffffffffff811115610f7a57610f79610d00565b5b610f8687828801610ede565b945050602085013567ffffffffffffffff811115610fa757610fa6610d00565b5b610fb387828801610ede565b935050604085013567ffffffffffffffff811115610fd457610fd3610d00565b5b610fe087828801610ede565b9250506060610ff187828801610f2d565b91505092959194509250565b61100681610f0c565b82525050565b60006020820190506110216000830184610ffd565b92915050565b60006020828403121561103d5761103c610cfb565b5b600061104b84828501610f2d565b91505092915050565b61105d81610d25565b82525050565b60006020820190506110786000830184611054565b92915050565b600081519050919050565b600082825260208201905092915050565b60005b838110156110b857808201518184015260208101905061109d565b60008484015250505050565b60006110cf8261107e565b6110d98185611089565b93506110e981856020860161109a565b6110f281610dd0565b840191505092915050565b6000608082019050818103600083015261111781876110c4565b9050818103602083015261112b81866110c4565b9050818103604083015261113f81856110c4565b905061114e6060830184610ffd565b95945050505050565b7f5573657220616c72656164792072656769737465726564000000000000000000600082015250565b600061118d601783611089565b915061119882611157565b602082019050919050565b600060208201905081810360008301526111bc81611180565b9050919050565b7f4e487b7100000000000000000000000000000000000000000000000000000000600052602260045260246000fd5b6000600282049050600182168061120a57607f821691505b60208210810361121d5761121c6111c3565b5b50919050565b60008190508160005260206000209050919050565b60006020601f8301049050919050565b600082821b905092915050565b6000600883026112857fffffffffffffffffffffffffffffffffffffffffffffffffffffffffffffffff82611248565b61128f8683611248565b95508019841693508086168417925050509392505050565b6000819050919050565b60006112cc6112c76112c284610f0c565b6112a7565b610f0c565b9050919050565b6000819050919050565b6112e6836112b1565b6112fa6112f2826112d3565b848454611255565b825550505050565b600090565b61130f611302565b61131a8184846112dd565b505050565b5b8181101561133e57611333600082611307565b600181019050611320565b5050565b601f8211156113835761135481611223565b61135d84611238565b8101602085101561136c578190505b61138061137885611238565b83018261131f565b50505b505050565b600082821c905092915050565b60006113a660001984600802611388565b1980831691505092915050565b60006113bf8383611395565b9150826002028217905092915050565b6113d88261107e565b67ffffffffffffffff8111156113f1576113f0610de1565b5b6113fb82546111f2565b611406828285611342565b600060209050601f8311600181146114395760008415611427578287015190505b61143185826113b3565b865550611499565b601f19841661144786611223565b60005b8281101561146f5784890151825560018201915060208501945060208101905061144a565b8683101561148c5784890151611488601f891682611395565b8355505b6001600288020188555050505b505050505050565b6000815490506114b0816111f2565b9050919050565b8181036114c557505061159d565b6114ce826114a1565b67ffffffffffffffff8111156114e7576114e6610de1565b5b6114f182546111f2565b6114fc828285611342565b6000601f83116001811461152b5760008415611519578287015490505b61152385826113b3565b865550611596565b601f19841661153987611223565b965061154486611223565b60005b8281101561156c57848901548255600182019150600185019450602081019050611547565b868310156115895784890154611585601f891682611395565b8355505b6001600288020188555050505b5050505050505b565b7f5573657220646f6573206e6f7420657869737400000000000000000000000000600082015250565b60006115d5601383611089565b91506115e08261159f565b602082019050919050565b60006020820190508181036000830152611604816115c8565b9050919050565b7f4e6f2062616c616e636520746f20776974686472617700000000000000000000600082015250565b6000611641601683611089565b915061164c8261160b565b602082019050919050565b6000602082019050818103600083015261167081611634565b9050919050565b7f4e487b7100000000000000000000000000000000000000000000000000000000600052601160045260246000fd5b60006116b182610f0c565b91506116bc83610f0c565b92508282039050818111156116d4576116d3611677565b5b92915050565b7f496e636f72726563742066656520616d6f756e74000000000000000000000000600082015250565b6000611710601483611089565b915061171b826116da565b602082019050919050565b6000602082019050818103600083015261173f81611703565b905091905056fea2646970667358221220add8e32631ac0480b896444473ecd7bfd07fba9f0a90c18d91d3d2a2f72a269d64736f6c63430008140033",
  "linkReferences": {},
  "deployedLinkReferences": {}
}