{
  "_format": "hh-sol-artifact-1",
  "contractName": "ProxyPay",
  "sourceName": "contracts/ProxyPay.sol",
  "abi": [
    {
      "anonymous": false,
      "inputs": [
        {
          "indexed": true,
          "internalType": "address",
          "name": "userAddress",
          "type": "address"
        },
        {
          "indexed": false,
          "internalType": "uint256",
          "name": "amount",
          "type": "uint256"
        }
      ],
      "name": "PaymentReceived",
      "type": "event"
    },
    {
      "anonymous": false,
      "inputs": [
        {
          "indexed": true,
          "internalType": "address",
          "name": "userAddress",
          "type": "address"
        },
        {
          "indexed": false,
          "internalType": "string",
          "name": "nameFid",
          "type": "string"
        },
        {
          "indexed": false,
          "internalType": "string",
          "name": "img",
          "type": "string"
        },
        {
          "indexed": false,
          "internalType": "string",
          "name": "buttonTitle",
          "type": "string"
        },
        {
          "indexed": false,
          "internalType": "uint256",
          "name": "fee",
          "type": "uint256"
        }
      ],
      "name": "UserRegistered",
      "type": "event"
    },
    {
      "anonymous": false,
      "inputs": [
        {
          "indexed": true,
          "internalType": "address",
          "name": "userAddress",
          "type": "address"
        },
        {
          "indexed": false,
          "internalType": "uint256",
          "name": "amount",
          "type": "uint256"
        }
      ],
      "name": "Withdrawal",
      "type": "event"
    },
    {
      "inputs": [
        {
          "internalType": "uint256",
          "name": "",
          "type": "uint256"
        }
      ],
      "name": "allUsers",
      "outputs": [
        {
          "internalType": "address",
          "name": "",
          "type": "address"
        }
      ],
      "stateMutability": "view",
      "type": "function"
    },
    {
      "inputs": [
        {
          "internalType": "address",
          "name": "",
          "type": "address"
        }
      ],
      "name": "balances",
      "outputs": [
        {
          "internalType": "uint256",
          "name": "",
          "type": "uint256"
        }
      ],
      "stateMutability": "view",
      "type": "function"
    },
    {
      "inputs": [],
      "name": "getBalance",
      "outputs": [
        {
          "internalType": "uint256",
          "name": "",
          "type": "uint256"
        }
      ],
      "stateMutability": "view",
      "type": "function"
    },
    {
      "inputs": [
        {
          "internalType": "address",
          "name": "_userAddress",
          "type": "address"
        }
      ],
      "name": "getUserData",
      "outputs": [
        {
          "internalType": "string",
          "name": "",
          "type": "string"
        },
        {
          "internalType": "string",
          "name": "",
          "type": "string"
        },
        {
          "internalType": "string",
          "name": "",
          "type": "string"
        },
        {
          "internalType": "uint256",
          "name": "",
          "type": "uint256"
        }
      ],
      "stateMutability": "view",
      "type": "function"
    },
    {
      "inputs": [
        {
          "internalType": "address",
          "name": "_userAddress",
          "type": "address"
        }
      ],
      "name": "payFee",
      "outputs": [],
      "stateMutability": "payable",
      "type": "function"
    },
    {
      "inputs": [
        {
          "internalType": "string",
          "name": "_nameFid",
          "type": "string"
        },
        {
          "internalType": "string",
          "name": "_img",
          "type": "string"
        },
        {
          "internalType": "string",
          "name": "_buttonTitle",
          "type": "string"
        },
        {
          "internalType": "uint256",
          "name": "_fee",
          "type": "uint256"
        }
      ],
      "name": "registerUser",
      "outputs": [],
      "stateMutability": "nonpayable",
      "type": "function"
    },
    {
      "inputs": [
        {
          "internalType": "address",
          "name": "",
          "type": "address"
        }
      ],
      "name": "userExists",
      "outputs": [
        {
          "internalType": "bool",
          "name": "",
          "type": "bool"
        }
      ],
      "stateMutability": "view",
      "type": "function"
    },
    {
      "inputs": [
        {
          "internalType": "address",
          "name": "",
          "type": "address"
        }
      ],
      "name": "users",
      "outputs": [
        {
          "internalType": "string",
          "name": "nameFid",
          "type": "string"
        },
        {
          "internalType": "string",
          "name": "img",
          "type": "string"
        },
        {
          "internalType": "string",
          "name": "buttonTitle",
          "type": "string"
        },
        {
          "internalType": "uint256",
          "name": "fee",
          "type": "uint256"
        }
      ],
      "stateMutability": "view",
      "type": "function"
    },
    {
      "inputs": [],
      "name": "withdraw",
      "outputs": [],
      "stateMutability": "nonpayable",
      "type": "function"
    }
  ],
  "bytecode": "0x608060405234801561001057600080fd5b5061187a806100206000396000f3fe6080604052600436106100865760003560e01c80633ccfd60b116100595780633ccfd60b146101595780636f5a955b14610170578063a2bdedf41461018c578063a87430ba146101c9578063ffc9896b1461020957610086565b80630e666e491461008b57806311b2806b146100c857806312065fe0146100f157806327e235e31461011c575b600080fd5b34801561009757600080fd5b506100b260048036038101906100ad9190610e2d565b610249565b6040516100bf9190610e75565b60405180910390f35b3480156100d457600080fd5b506100ef60048036038101906100ea919061100c565b610269565b005b3480156100fd57600080fd5b50610106610517565b60405161011391906110d6565b60405180910390f35b34801561012857600080fd5b50610143600480360381019061013e9190610e2d565b61055e565b60405161015091906110d6565b60405180910390f35b34801561016557600080fd5b5061016e610576565b005b61018a60048036038101906101859190610e2d565b6107af565b005b34801561019857600080fd5b506101b360048036038101906101ae91906110f1565b6109a7565b6040516101c0919061112d565b60405180910390f35b3480156101d557600080fd5b506101f060048036038101906101eb9190610e2d565b6109e6565b60405161020094939291906111c7565b60405180910390f35b34801561021557600080fd5b50610230600480360381019061022b9190610e2d565b610bae565b60405161024094939291906111c7565b60405180910390f35b60016020528060005260406000206000915054906101000a900460ff1681565b600160003373ffffffffffffffffffffffffffffffffffffffff1673ffffffffffffffffffffffffffffffffffffffff16815260200190815260200160002060009054906101000a900460ff16156102f6576040517f08c379a00000000000000000000000000000000000000000000000000000000081526004016102ed9061126d565b60405180910390fd5b60008060003373ffffffffffffffffffffffffffffffffffffffff1673ffffffffffffffffffffffffffffffffffffffff1681526020019081526020016000209050848160000190816103499190611499565b508381600101908161035b9190611499565b508281600201908161036d9190611499565b5081816003018190555060018060003373ffffffffffffffffffffffffffffffffffffffff1673ffffffffffffffffffffffffffffffffffffffff16815260200190815260200160002060006101000a81548160ff021916908315150217905550806000803373ffffffffffffffffffffffffffffffffffffffff1673ffffffffffffffffffffffffffffffffffffffff168152602001908152602001600020600082018160000190816104219190611581565b50600182018160010190816104369190611581565b506002820181600201908161044b9190611581565b50600382015481600301559050506003339080600181540180825580915050600190039060005260206000200160009091909190916101000a81548173ffffffffffffffffffffffffffffffffffffffff021916908373ffffffffffffffffffffffffffffffffffffffff1602179055503373ffffffffffffffffffffffffffffffffffffffff167feb909d03a1826538126783a14a06a590245c9e5085337d88971cca5ada6b80998686868660405161050894939291906111c7565b60405180910390a25050505050565b6000600260003373ffffffffffffffffffffffffffffffffffffffff1673ffffffffffffffffffffffffffffffffffffffff16815260200190815260200160002054905090565b60026020528060005260406000206000915090505481565b600160003373ffffffffffffffffffffffffffffffffffffffff1673ffffffffffffffffffffffffffffffffffffffff16815260200190815260200160002060009054906101000a900460ff16610602576040517f08c379a00000000000000000000000000000000000000000000000000000000081526004016105f9906116b5565b60405180910390fd5b6000600260003373ffffffffffffffffffffffffffffffffffffffff1673ffffffffffffffffffffffffffffffffffffffff16815260200190815260200160002054905060008111610689576040517f08c379a000000000000000000000000000000000000000000000000000000000815260040161068090611721565b60405180910390fd5b80600260003373ffffffffffffffffffffffffffffffffffffffff1673ffffffffffffffffffffffffffffffffffffffff168152602001908152602001600020546106d49190611770565b600260003373ffffffffffffffffffffffffffffffffffffffff1673ffffffffffffffffffffffffffffffffffffffff168152602001908152602001600020819055503373ffffffffffffffffffffffffffffffffffffffff166108fc829081150290604051600060405180830381858888f1935050505015801561075d573d6000803e3d6000fd5b503373ffffffffffffffffffffffffffffffffffffffff167f7fcf532c15f0a6db0bd6d0e038bea71d30d808c7d98cb3bf7268a95bf5081b65826040516107a491906110d6565b60405180910390a250565b600160008273ffffffffffffffffffffffffffffffffffffffff1673ffffffffffffffffffffffffffffffffffffffff16815260200190815260200160002060009054906101000a900460ff1661083b576040517f08c379a0000000000000000000000000000000000000000000000000000000008152600401610832906116b5565b60405180910390fd5b60008060008373ffffffffffffffffffffffffffffffffffffffff1673ffffffffffffffffffffffffffffffffffffffff1681526020019081526020016000209050806003015434146108c3576040517f08c379a00000000000000000000000000000000000000000000000000000000081526004016108ba906117f0565b60405180910390fd5b8060030154600260008473ffffffffffffffffffffffffffffffffffffffff1673ffffffffffffffffffffffffffffffffffffffff168152602001908152602001600020546109129190611810565b600260008473ffffffffffffffffffffffffffffffffffffffff1673ffffffffffffffffffffffffffffffffffffffff168152602001908152602001600020819055508173ffffffffffffffffffffffffffffffffffffffff167f6ef95f06320e7a25a04a175ca677b7052bdd97131872c2192525a629f51be7703460405161099b91906110d6565b60405180910390a25050565b600381815481106109b757600080fd5b906000526020600020016000915054906101000a900473ffffffffffffffffffffffffffffffffffffffff1681565b6000602052806000526040600020600091509050806000018054610a09906112bc565b80601f0160208091040260200160405190810160405280929190818152602001828054610a35906112bc565b8015610a825780601f10610a5757610100808354040283529160200191610a82565b820191906000526020600020905b815481529060010190602001808311610a6557829003601f168201915b505050505090806001018054610a97906112bc565b80601f0160208091040260200160405190810160405280929190818152602001828054610ac3906112bc565b8015610b105780601f10610ae557610100808354040283529160200191610b10565b820191906000526020600020905b815481529060010190602001808311610af357829003601f168201915b505050505090806002018054610b25906112bc565b80601f0160208091040260200160405190810160405280929190818152602001828054610b51906112bc565b8015610b9e5780601f10610b7357610100808354040283529160200191610b9e565b820191906000526020600020905b815481529060010190602001808311610b8157829003601f168201915b5050505050908060030154905084565b60608060606000806000808773ffffffffffffffffffffffffffffffffffffffff1673ffffffffffffffffffffffffffffffffffffffff16815260200190815260200160002090508060000181600101826002018360030154838054610c13906112bc565b80601f0160208091040260200160405190810160405280929190818152602001828054610c3f906112bc565b8015610c8c5780601f10610c6157610100808354040283529160200191610c8c565b820191906000526020600020905b815481529060010190602001808311610c6f57829003601f168201915b50505050509350828054610c9f906112bc565b80601f0160208091040260200160405190810160405280929190818152602001828054610ccb906112bc565b8015610d185780601f10610ced57610100808354040283529160200191610d18565b820191906000526020600020905b815481529060010190602001808311610cfb57829003601f168201915b50505050509250818054610d2b906112bc565b80601f0160208091040260200160405190810160405280929190818152602001828054610d57906112bc565b8015610da45780601f10610d7957610100808354040283529160200191610da4565b820191906000526020600020905b815481529060010190602001808311610d8757829003601f168201915b505050505091509450945094509450509193509193565b6000604051905090565b600080fd5b600080fd5b600073ffffffffffffffffffffffffffffffffffffffff82169050919050565b6000610dfa82610dcf565b9050919050565b610e0a81610def565b8114610e1557600080fd5b50565b600081359050610e2781610e01565b92915050565b600060208284031215610e4357610e42610dc5565b5b6000610e5184828501610e18565b91505092915050565b60008115159050919050565b610e6f81610e5a565b82525050565b6000602082019050610e8a6000830184610e66565b92915050565b600080fd5b600080fd5b6000601f19601f8301169050919050565b7f4e487b7100000000000000000000000000000000000000000000000000000000600052604160045260246000fd5b610ee382610e9a565b810181811067ffffffffffffffff82111715610f0257610f01610eab565b5b80604052505050565b6000610f15610dbb565b9050610f218282610eda565b919050565b600067ffffffffffffffff821115610f4157610f40610eab565b5b610f4a82610e9a565b9050602081019050919050565b82818337600083830152505050565b6000610f79610f7484610f26565b610f0b565b905082815260208101848484011115610f9557610f94610e95565b5b610fa0848285610f57565b509392505050565b600082601f830112610fbd57610fbc610e90565b5b8135610fcd848260208601610f66565b91505092915050565b6000819050919050565b610fe981610fd6565b8114610ff457600080fd5b50565b60008135905061100681610fe0565b92915050565b6000806000806080858703121561102657611025610dc5565b5b600085013567ffffffffffffffff81111561104457611043610dca565b5b61105087828801610fa8565b945050602085013567ffffffffffffffff81111561107157611070610dca565b5b61107d87828801610fa8565b935050604085013567ffffffffffffffff81111561109e5761109d610dca565b5b6110aa87828801610fa8565b92505060606110bb87828801610ff7565b91505092959194509250565b6110d081610fd6565b82525050565b60006020820190506110eb60008301846110c7565b92915050565b60006020828403121561110757611106610dc5565b5b600061111584828501610ff7565b91505092915050565b61112781610def565b82525050565b6000602082019050611142600083018461111e565b92915050565b600081519050919050565b600082825260208201905092915050565b60005b83811015611182578082015181840152602081019050611167565b60008484015250505050565b600061119982611148565b6111a38185611153565b93506111b3818560208601611164565b6111bc81610e9a565b840191505092915050565b600060808201905081810360008301526111e1818761118e565b905081810360208301526111f5818661118e565b90508181036040830152611209818561118e565b905061121860608301846110c7565b95945050505050565b7f5573657220616c72656164792072656769737465726564000000000000000000600082015250565b6000611257601783611153565b915061126282611221565b602082019050919050565b600060208201905081810360008301526112868161124a565b9050919050565b7f4e487b7100000000000000000000000000000000000000000000000000000000600052602260045260246000fd5b600060028204905060018216806112d457607f821691505b6020821081036112e7576112e661128d565b5b50919050565b60008190508160005260206000209050919050565b60006020601f8301049050919050565b600082821b905092915050565b60006008830261134f7fffffffffffffffffffffffffffffffffffffffffffffffffffffffffffffffff82611312565b6113598683611312565b95508019841693508086168417925050509392505050565b6000819050919050565b600061139661139161138c84610fd6565b611371565b610fd6565b9050919050565b6000819050919050565b6113b08361137b565b6113c46113bc8261139d565b84845461131f565b825550505050565b600090565b6113d96113cc565b6113e48184846113a7565b505050565b5b81811015611408576113fd6000826113d1565b6001810190506113ea565b5050565b601f82111561144d5761141e816112ed565b61142784611302565b81016020851015611436578190505b61144a61144285611302565b8301826113e9565b50505b505050565b600082821c905092915050565b600061147060001984600802611452565b1980831691505092915050565b6000611489838361145f565b9150826002028217905092915050565b6114a282611148565b67ffffffffffffffff8111156114bb576114ba610eab565b5b6114c582546112bc565b6114d082828561140c565b600060209050601f83116001811461150357600084156114f1578287015190505b6114fb858261147d565b865550611563565b601f198416611511866112ed565b60005b8281101561153957848901518255600182019150602085019450602081019050611514565b868310156115565784890151611552601f89168261145f565b8355505b6001600288020188555050505b505050505050565b60008154905061157a816112bc565b9050919050565b81810361158f575050611667565b6115988261156b565b67ffffffffffffffff8111156115b1576115b0610eab565b5b6115bb82546112bc565b6115c682828561140c565b6000601f8311600181146115f557600084156115e3578287015490505b6115ed858261147d565b865550611660565b601f198416611603876112ed565b965061160e866112ed565b60005b8281101561163657848901548255600182019150600185019450602081019050611611565b86831015611653578489015461164f601f89168261145f565b8355505b6001600288020188555050505b5050505050505b565b7f5573657220646f6573206e6f7420657869737400000000000000000000000000600082015250565b600061169f601383611153565b91506116aa82611669565b602082019050919050565b600060208201905081810360008301526116ce81611692565b9050919050565b7f4e6f2062616c616e636520746f20776974686472617700000000000000000000600082015250565b600061170b601683611153565b9150611716826116d5565b602082019050919050565b6000602082019050818103600083015261173a816116fe565b9050919050565b7f4e487b7100000000000000000000000000000000000000000000000000000000600052601160045260246000fd5b600061177b82610fd6565b915061178683610fd6565b925082820390508181111561179e5761179d611741565b5b92915050565b7f496e636f72726563742066656520616d6f756e74000000000000000000000000600082015250565b60006117da601483611153565b91506117e5826117a4565b602082019050919050565b60006020820190508181036000830152611809816117cd565b9050919050565b600061181b82610fd6565b915061182683610fd6565b925082820190508082111561183e5761183d611741565b5b9291505056fea2646970667358221220f5195943ac38a08c3813b25c0ee20fb7fb67eafc804011821b8c61c63bbe4d4464736f6c63430008140033",
  "linkReferences": {},
  "deployedLinkReferences": {}
}